10077977290001809041619772    DISTRIBUIDORA E TRANSPORTADORA DE CJOAQUIM TAVORA                PR43356424292013040120130430333
11ROD PARIGOT DE SOUZA S/N KM 303,4 00000                      PR 092         86455000jose manuel da silva        004335642429
70130388240001009054398120    20130404PR07  100013463530000000000100000000000000000000000000000000000000000000000000000000001N
70130388240001009054398120    20130404PR07  100013163530000000000100000000000000000000000000000000000000000000000000000000001N
70130388240001009054398120    20130404PR07  100013663530000000000100000000000000000000000000000000000000000000000000000000001N
70130388240001009054398120    20130404PR07  100013063530000000000100000000000000000000000000000000000000000000000000000000001S
70130388240001009054398120    20130404PR07  100012963530000000000100000000000000000000000000000000000000000000000000000000001S
70130388240001009054398120    20130404PR07  100013263530000000000100000000000000000000000000000000000000000000000000000000001N
70130388240001009054398120    20130404PR07  100013363530000000000100000000000000000000000000000000000000000000000000000000001N
70130388240001009054398120    20130417PR07  100015463530000000000100000000000000000000000000000000000000000000000000000000001N
70130388240001009054398120    20130417PR07  100015363530000000000100000000000000000000000000000000000000000000000000000000001N
70130388240001009054398120    20130417PR07  100015563530000000000100000000000000000000000000000000000000000000000000000000001N
70130388240001009054398120    20130417PR07  100015763530000000000100000000000000000000000000000000000000000000000000000000001N
70130388240001009054398120    20130417PR07  100015663530000000000100000000000000000000000000000000000000000000000000000000001N
70130388240001009054398120    20130417PR07  100015263530000000000100000000000000000000000000000000000000000000000000000000001N
70130388240001009054398120    20130417PR07  100014863530000000000100000000000000000000000000000000000000000000000000000000001N
70130388240001009054398120    20130417PR07  100014763530000000000100000000000000000000000000000000000000000000000000000000001N
70130388240001009054398120    20130417PR07  100014963530000000000100000000000000000000000000000000000000000000000000000000001N
70130388240001009054398120    20130417PR07  100015163530000000000100000000000000000000000000000000000000000000000000000000001N
70130388240001009054398120    20130417PR07  100015063530000000000100000000000000000000000000000000000000000000000000000000001N
71130388240001009054398120    20130404PR07  1000134SP64093495000123546115835113  201304045500103664900000000000000            
71130388240001009054398120    20130404PR07  1000131SP71782858000101113874404115  201304095500103705800000000000000            
71130388240001009054398120    20130404PR07  1000136SP49316524000185345002200110  201304095500103706100000000000000            
71130388240001009054398120    20130404PR07  1000130SP55459051000178669582245113  201304095500103681400000000000000            
71130388240001009054398120    20130404PR07  1000129SP96584420000131734001200113  201304095500103681600000000000000            
71130388240001009054398120    20130404PR07  1000132SP05867744000121116668354111  201304095500103723800000000000000            
71130388240001009054398120    20130404PR07  1000133SP08957459000190626738856118  201304095500103994300000000000000            
71130388240001009054398120    20130417PR07  1000154SC83177170000173250436086     201304095500103679900000000000000            
71130388240001009054398120    20130417PR07  1000153SP05819898000148206211149111  201304095500103771900000000000000            
71130388240001009054398120    20130417PR07  1000155SP05991706000186336720238119  201304095500103720400000000000000            
71130388240001009054398120    20130417PR07  1000157SP05904970000135116722066118  201304095500103720800000000000000            
71130388240001009054398120    20130417PR07  1000156SP02978127000105495064609112  201304095500103693900000000000000            
71130388240001009054398120    20130417PR07  1000152SP02831457000173190101327110  201304095500103767600000000000000            
71130388240001009054398120    20130417PR07  1000148SP08702218000108623100656118  201304095500103717100000000000000            
71130388240001009054398120    20130417PR07  1000147SP02978127000105495064609112  201304095500103716800000000000000            
71130388240001009054398120    20130417PR07  1000149SP08667714000160149595843118  201304095500103723400000000000000            
71130388240001009054398120    20130417PR07  1000151SP12865536000159379071199114  201304095500103747100000000000000            
71130388240001009054398120    20130417PR07  1000150SP01111342000141114667750114  201304095500103724900000000000000            
90077977290001809041619772    70000000187100000018                                                                           2
90077977290001809041619772    9900000040                                                                                     2
