10077977290001809041619772    DISTRIBUIDORA E TRANSPORTADORA DE CJOAQUIM TAVORA                PR43356424292012040120130430333
11ROD PARIGOT DE SOUZA S/N KM 303,4 00000                      PR 092         86455000jose manuel da silva        004335642429
70047486310021980000000297769920130207RO07  100000263530000001142672000000005713360000000006856000000000000000000000000000001N
70047486310009000000000297769920130207RO07  100000363530000001421416000000007107080000000008528500000000000000000000000000001N
7004748631002198ISENTO        20130208RO07  100000463530000000000100000000000000000000000000000000000000000000000000000000001S
70016821470001719014016837    20130208PR07  100000663530000000900000000000000000000000000000000000000000000000000000000000001N
70047486310009000000000297769920130208RO07  100000563530000001375747000000006878730000000008254500000000000000000000000000001N
70106851940001609047267029    20130209PR07  100000763530000000060000000000000600000000000000720000000000000000000000000000001N
70106851940001609047267029    20130209PR07  100000863530000000060000000000000600000000000000720000000000000000000000000000001N
70807609370001029049630899    20130211PR07  100001163530000000260000000000002600000000000003120000000000000000000000000000001N
70807609370001029049630899    20130211PR07  100000963530000000040000000000000400000000000000480000000000000000000000000000001N
70807609370001029049630899    20130211PR07  100001063530000000040000000000000400000000000000480000000000000000000000000000001N
70047486310009002977699       20130213RO07  100001663530000001333142000000006665710000000007998900000000000000000000000000001S
7003955125000163116064096116  20130213SP07  100001563530000000174000000000001740000000000001218000000000000000000000000000001N
70039904310001309021982889    20130213PR07  100001863530000000658000000000005880000000000007056000000000000000000000000000001N
70047486310009000000000297769920130213RO07  100001663530000001333142000000006665710000000007998900000000000000000000000000001S
7015579736000133145299594112  20130213SP07  100001363530000000142000000000001420000000000000994000000000000000000000000000001N
7003955125000163116064096116  20130213SP07  100001263530000000038500000000000000000000000000000000000000000000000000000000001S
7003955125000163116064096116  20130213SP07  100001463530000000038500000000000385000000000000269500000000000000000000000000001N
70047486310009000000000297769920130213RO07  100001763530000001333142000000006665710000000007998900000000000000000000000000001N
70106851940001609047267029    20130214PR07  100002563530000000060000000000000600000000000000720000000000000000000000000000001N
70106851940001609047267029    20130214PR07  100002463530000000040000000000000400000000000000480000000000000000000000000000001N
70047486310009002977699       20130214RO07  100002663530000000084985000000000424920000000000509900000000000000000000000000001N
70047486310009000000000297769920130214RO07  100002763530000000082545000000000412720000000000495300000000000000000000000000001N
70047486310009000000000297769920130214RO07  100002663530000000084985000000000424920000000000509900000000000000000000000000001N
70106851940001609047267029    20130214PR07  100002363530000000040000000000000400000000000000480000000000000000000000000000001N
70807609370001029049630899    20130214PR07  100002063530000000260000000000002600000000000003120000000000000000000000000000001N
70106851940001609047267029    20130214PR07  100002863530000000060000000000000600000000000000720000000000000000000000000000001N
70807609370001029049630899    20130214PR07  100001963530000000260000000000002600000000000003120000000000000000000000000000001N
70106851940001609047267029    20130214PR07  100002263530000000060000000000000600000000000000720000000000000000000000000000001N
70807609370001029049630899    20130214PR07  100002163530000000260000000000002600000000000003120000000000000000000000000000001N
70106851940001609047267029    20130215PR07  100003263530000000060000000000000600000000000000720000000000000000000000000000001N
70106851940001609047267029    20130215PR07  100003363530000000060000000000000600000000000000720000000000000000000000000000001N
70047486310009000000000297769920130215RO07  100003063530000001489082000000007445410000000008934500000000000000000000000000001N
70039904310001309021982889    20130215PR07  100003163530000000764883000000007648830000000005354200000000000000000000000000001N
70039904310001309021982889    20130216PR07  100003863530000000492100000000004921000000000005905200000000000000000000000000001N
70047486310021980000000337096820130216RO07  100003963530000001142672000000005713360000000006856000000000000000000000000000001N
7003853896000573132159767     20130216MT07  100004163530000000652707000000000000000000000000000000000000000000000000000000001N
7003853896000573132159767     20130216MT07  100004063530000000452661000000000000000000000000000000000000000000000000000000001N
70039904310001309021982889    20130216PR07  100003563530000000492100000000004921000000000003444700000000000000000000000000001S
7003853896000573132159767     20130216MT07  100003463530000001105368000000000000000000000000000000000000000000000000000000001S
70106851940001609047267029    20130218PR07  100004263530000000040000000000000400000000000000480000000000000000000000000000001N
70106851940001609047267029    20130218PR07  100004563530000000060000000000000600000000000000720000000000000000000000000000001N
70106851940001609047267029    20130218PR07  100004463530000000060000000000000600000000000000720000000000000000000000000000001N
7000003558488997012517577     20130219SC07  100004963530000000400000000000004000000000000004800000000000000000000000000000001S
70047486310009002977699       20130219RO07  100005063530000001325156000000006625780000000007950900000000000000000000000000001N
70047486310009000000000297769920130219RO07  100005063530000001325156000000006625780000000007950900000000000000000000000000001N
70807609370001029049630899    20130219PR07  100004863530000000060000000000000600000000000000720000000000000000000000000000001N
70807609370001029049630899    20130219PR07  100004663530000000060000000000000600000000000000720000000000000000000000000000001N
70807609370001029049630899    20130219PR07  100004763530000000060000000000000600000000000000720000000000000000000000000000001N
7004415992000221488006262117  20130220SP07  100005363530000000300000000000003000000000000002100000000000000000000000000000001N
7004515992000221488006262117  20130220SP07  100005463530000000300000000000003000000000000002100000000000000000000000000000001N
7004515992000221488006262117  20130220SP07  100005363530000000300000000000003000000000000002100000000000000000000000000000001N
70047486310009000000000297769920130220RO07  100005263530000001301681000000006508410000000007810100000000000000000000000000001N
7003853896000301564070820110  20130220SP07  100005163530000001378545000000000000000000000000000000000000000000000000000000001N
70106851940001609047267029    20130221PR07  100005863530000000060000000000000600000000000000720000000000000000000000000000001N
70106851940001609047267029    20130221PR07  100005963530000000040000000000000400000000000000720000000000000000000000000000001N
70106851940001609047267029    20130221PR07  100005563530000000060000000000000600000000000000720000000000000000000000000000001N
7001778112000130161095640     20130222PB07  100006463530000000622140000000000000000000000000000000000000000000000000000000001N
70106851940001609047267029    20130222PR07  100006363530000000469400000000004694000000000005632800000000000000000000000000001N
7003853896000301564070820110  20130222SP07  100006063530000000160915000000000000000000000000000000000000000000000000000000001N
70807609370001029049630899    20130223PR07  100006663530000000060000000000000600000000000000720000000000000000000000000000001N
70807609370001029049630899    20130223PR07  100006763530000000060000000000000600000000000000720000000000000000000000000000001N
70807609370001029049630899    20130223PR07  100006563530000000060000000000000600000000000000720000000000000000000000000000001N
70807609370001029049630899    20130225PR07  100007063530000000040000000000000400000000000000480000000000000000000000000000001N
7052645009000820697064263110  20130225SP07  100007163530000000060000000000000600000000000000720000000000000000000000000000001N
70106851940001609047267029    20130225PR07  100006863530000000060000000000000600000000000000720000000000000000000000000000001N
70106851940001609047267029    20130225PR07  100006963530000000060000000000000600000000000000720000000000000000000000000000001N
70047486310009000000000297769920130226RO07  100007463530000001330818000000006654090000000007984900000000000000000000000000001N
70039904310001309021982889    20130226PR07  100007563530000000338000000000003380000000000004056000000000000000000000000000001N
70807609370001029049630899    20130226PR07  100007263530000000060000000000000600000000000000720000000000000000000000000000001N
70106851940001609047267029    20130226PR07  100007363530000000060000000000000600000000000000720000000000000000000000000000001N
7003853896000573132159767     20130227MT07  100008063530000000714376000000000000000000000000000000000000000000000000000000001N
70807609370001029049630899    20130227PR07  100008163530000000060000000000000600000000000000720000000000000000000000000000001N
70106851940001609047267029    20130227PR07  100008363530000000533300000000005333000000000006399600000000000000000000000000001N
70106851940001609047267029    20130227PR07  100008263530000000060000000000000600000000000000720000000000000000000000000000001N
7003853896000573132159767     20130227MT07  100007963530000000714376000000007143760000000008572500000000000000000000000000001S
70047486310009000000000297769920130227RO07  100007663530000000689944000000003449720000000004139700000000000000000000000000001N
70047486310009000000000297769920130227RO07  100007663530000000689944000000003449720000000004139700000000000000000000000000001N
70047486310009000000000297769920130227RO07  100007863530000000314666000000001573330000000001888000000000000000000000000000001N
70047486310009000000000297769920130227RO07  100007763530000000364710000000001823550000000002188300000000000000000000000000001N
7051025112000138110745445116  20130228SP07  100008763530000000741200000000007412000000000005188400000000000000000000000000001N
7013809994000133145554840115  20130228SP07  100008863530000000141800000000001418000000000000992600000000000000000000000000001N
7013809994000133145554840115  20130228SP07  100008963530000000327000000000003270000000000002289000000000000000000000000000001N
70807609370001029049630899    20130228PR07  100008463530000000060000000000000600000000000000720000000000000000000000000000001N
70106851940001609047267029    20130228PR07  100008663530000000060000000000000600000000000000720000000000000000000000000000001N
7015579736000133145299594112  20130228SP07  100008563530000001100000000000011000000000000007700000000000000000000000000000001N
70047486310009000000000297769920130302RO07  100010063530000001263549000000006317750000000007581300000000000000000000000000001N
70047486310009000000000297769920130302RO07  100010163530000000048923000000000244610000000000293500000000000000000000000000001N
7003853896000301564070820110  20130302SP07  100009863530000000155766000000000000000000000000000000000000000000000000000000001N
70807609370001029049630899    20130302PR07  100009663530000000060000000000000600000000000000720000000000000000000000000000001N
70807609370001029049630899    20130302PR07  100009763530000000060000000000000600000000000000720000000000000000000000000000001N
7002838996000134081989938     20130304ES07  100010763530000000000100000000000001000000000000001200000000000000000000000000001N
70807609370001029049630899    20130304PR07  100010263530000000040000000000000400000000000000480000000000000000000000000000001N
7002838996000134081989938     20130305ES07  100011163530000000000100000000000001000000000000001200000000000000000000000000001N
7002838996000134081989938     20130305ES07  100011263530000000000100000000000001000000000000001200000000000000000000000000001N
7002838996000134081989938     20130305ES07  100010863530000000000100000000000001000000000000001200000000000000000000000000001S
7002838996000134081989938     20130305ES07  100010963530000000000100000000000001000000000000001200000000000000000000000000001S
70096004110001929044243072    20130315PR07  100011463530000000000100000000000000000000000000000000000000000000000000000000001N
70130388240001009054398120    20130404PR07  100013463530000000000100000000000000000000000000000000000000000000000000000000001N
70130388240001009054398120    20130404PR07  100013163530000000000100000000000000000000000000000000000000000000000000000000001N
70130388240001009054398120    20130404PR07  100013663530000000000100000000000000000000000000000000000000000000000000000000001N
70130388240001009054398120    20130404PR07  100013063530000000000100000000000000000000000000000000000000000000000000000000001S
70130388240001009054398120    20130404PR07  100012963530000000000100000000000000000000000000000000000000000000000000000000001S
70130388240001009054398120    20130404PR07  100013263530000000000100000000000000000000000000000000000000000000000000000000001N
70130388240001009054398120    20130404PR07  100013363530000000000100000000000000000000000000000000000000000000000000000000001N
70130388240001009054398120    20130417PR07  100015463530000000000100000000000000000000000000000000000000000000000000000000001N
70130388240001009054398120    20130417PR07  100015363530000000000100000000000000000000000000000000000000000000000000000000001N
70130388240001009054398120    20130417PR07  100015563530000000000100000000000000000000000000000000000000000000000000000000001N
70130388240001009054398120    20130417PR07  100015763530000000000100000000000000000000000000000000000000000000000000000000001N
70130388240001009054398120    20130417PR07  100015663530000000000100000000000000000000000000000000000000000000000000000000001N
70130388240001009054398120    20130417PR07  100015263530000000000100000000000000000000000000000000000000000000000000000000001N
70130388240001009054398120    20130417PR07  100014863530000000000100000000000000000000000000000000000000000000000000000000001N
70130388240001009054398120    20130417PR07  100014763530000000000100000000000000000000000000000000000000000000000000000000001N
70130388240001009054398120    20130417PR07  100014963530000000000100000000000000000000000000000000000000000000000000000000001N
70130388240001009054398120    20130417PR07  100015163530000000000100000000000000000000000000000000000000000000000000000000001N
70130388240001009054398120    20130417PR07  100015063530000000000100000000000000000000000000000000000000000000000000000000001N
71130388240001009054398120    20130404PR07  1000134SP64093495000123546115835113  201304040100103664900000000000300            
71130388240001009054398120    20130404PR07  1000131SP71782858000101113874404115  201304090100103705800000000000300            
71130388240001009054398120    20130404PR07  1000136SP49316524000185345002200110  201304090100103706100000000000300            
71130388240001009054398120    20130404PR07  1000130SP55459051000178669582245113  201304090100103681400000000000300            
71130388240001009054398120    20130404PR07  1000129SP96584420000131734001200113  201304090100103681600000000000300            
71130388240001009054398120    20130404PR07  1000132SP05867744000121116668354111  201304090100103723800000000000300            
71130388240001009054398120    20130404PR07  1000133SP08957459000190626738856118  201304090100103994300000000000300            
71130388240001009054398120    20130417PR07  1000154SC83177170000173250436086     201304090100103679900000000000300            
71130388240001009054398120    20130417PR07  1000153SP05819898000148206211149111  201304090100103771900000000000300            
71130388240001009054398120    20130417PR07  1000155SP05991706000186336720238119  201304090100103720400000000000300            
71130388240001009054398120    20130417PR07  1000157SP05904970000135116722066118  201304090100103720800000000000300            
71130388240001009054398120    20130417PR07  1000156SP02978127000105495064609112  201304090100103693900000000000300            
71130388240001009054398120    20130417PR07  1000152SP02831457000173190101327110  201304090100103767600000000000300            
71130388240001009054398120    20130417PR07  1000148SP08702218000108623100656118  201304090100103717100000000000300            
71130388240001009054398120    20130417PR07  1000147SP02978127000105495064609112  201304090100103716800000000000300            
71130388240001009054398120    20130417PR07  1000149SP08667714000160149595843118  201304090100103723400000000000300            
71130388240001009054398120    20130417PR07  1000151SP12865536000159379071199114  201304090100103747100000000000300            
71130388240001009054398120    20130417PR07  1000150SP01111342000141114667750114  201304090100103724900000000000300            
90077977290001809041619772    70000001157100000018                                                                           2
90077977290001809041619772    9900000137                                                                                     2
